:100000000C9462000C948A000C948A000C948A0070
:100010000C948A000C948A000C948A000C948A0038
:100020000C948A000C948A000C948A000C948A0028
:100030000C948A000C948A000C948A000C948A0018
:100040000C94B8060C948A000C9486060C946006F6
:100050000C948A000C948A000C948A000C948A00F8
:100060000C9402070C948A00000000002400270072
:100070002A0000000000250028002B0000000000DE
:1000800023002600290004040404040404040202DA
:100090000202020203030303030301020408102007
:1000A0004080010204081020010204081020000012
:1000B0000008000201000003040700000000000027
:1000C0000000210811241FBECFEFD8E0DEBFCDBF56
:1000D00011E0A0E0B1E0E8E6FAE102C005900D927F
:1000E000A036B107D9F722E0A0E6B1E001C01D9229
:1000F000A53EB207E1F710E0C2E6D0E004C02197C8
:10010000FE010E942C0DC136D107C9F70E9470086C
:100110000C94320D0C940000FC01538D448D252F5E
:1001200030E0842F90E0821B930B541710F0CF9691
:10013000089501970895FC01918D828D981761F0C3
:10014000A28DAE0FBF2FB11D5D968C91928D9F5FDA
:100150009F73928F90E008958FEF9FEF0895FC01B9
:10016000918D828D981731F0828DE80FF11D858D6C
:1001700090E008958FEF9FEF0895FC01918D228DFF
:10018000892F90E0805C9F4F821B91098F73992784
:100190000895FC01A48DA80FB92FB11DA35ABF4F1C
:1001A0002C91848D90E001968F739927848FA68976
:1001B000B7892C93A089B1898C91837080648C93CA
:1001C000938D848D981306C00288F389E02D808179
:1001D0008F7D80830895EF92FF920F931F93CF93AB
:1001E000DF93EC0181E0888F9B8D8C8D98131AC072
:1001F000E889F989808185FF15C09FB7F894EE8959
:10020000FF896083E889F9898081837080648083B5
:100210009FBF81E090E0DF91CF911F910F91FF9000
:10022000EF900895F62E0B8D10E00F5F1F4F0F73A8
:100230001127E02E8C8D8E110CC00FB607FCFACF63
:10024000E889F989808185FFF5CFCE010E94C90038
:10025000F1CFEB8DEC0FFD2FF11DE35AFF4FF08234
:100260009FB7F8940B8FEA89FB8980818062CFCF9A
:10027000CF93DF93EC01888D8823B9F0AA89BB89DD
:10028000E889F9898C9185FD03C0808186FD0DC0C8
:100290000FB607FCF7CF8C9185FFF2CF808185FFE9
:1002A000EDCFCE010E94C900E9CFDF91CF91089533
:1002B00083E292E00E94BD0021E0892B09F420E056
:1002C000822F089580E090E0892B29F00E94580148
:1002D00081110C940000089508950895AF92BF9283
:1002E000CF92DF92EF92FF920F931F93CF93DF9302
:1002F0006C017B018B01040F151FEB015E01AE1831
:10030000BF08C017D10759F06991D601ED91FC9152
:100310000190F081E02DC6010995892B79F7C5017F
:10032000DF91CF911F910F91FF90EF90DF90CF90D1
:10033000BF90AF900895833081F028F4813099F018
:100340008230A9F008958730A9F08830C9F0843050
:10035000B1F4809180008F7D03C0809180008F7701
:1003600080938000089584B58F7784BD089584B507
:100370008F7DFBCF8091B0008F778093B000089580
:100380008091B0008F7DF9CFCF93DF93282F30E09D
:10039000F901E255FF4F8491F901E656FF4FD491E0
:1003A000F901EA57FF4FC491CC23A1F081110E94BB
:1003B0009B01EC2FF0E0EE0FFF1FE458FF4FA591DB
:1003C000B491EC91ED2381E090E009F480E0DF91BD
:1003D000CF91089580E090E0FACF1F93CF93DF9301
:1003E000282F30E0F901E255FF4F8491F901E656DC
:1003F000FF4FD491F901EA57FF4FC491CC23A9F0E4
:10040000162F81110E949B01EC2FF0E0EE0FFF1FD1
:10041000EE58FF4FA591B4918FB7F894EC9111115C
:1004200008C0D095DE23DC938FBFDF91CF911F9161
:100430000895DE2BF8CFCF93DF9390E0FC01E656D2
:10044000FF4F24918A579F4FFC0184918823D1F05C
:1004500090E0880F991FFC01E859FF4FA591B491D6
:10046000FC01EE58FF4FC591D49161110EC09FB7AA
:10047000F8948C91E22FE0958E238C932881E223CF
:10048000E8839FBFDF91CF9108958FB7F894EC91E7
:10049000E22BEC938FBFF6CF3FB7F8948091130215
:1004A00090911402A0911502B091160226B5A89B56
:1004B00005C02F3F19F00196A11DB11D3FBFBA2FF6
:1004C000A92F982F8827BC01CD01620F711D811DB6
:1004D000911D42E0660F771F881F991F4A95D1F73B
:1004E00008958F929F92AF92BF92CF92DF92EF9238
:1004F000FF924B015C010E944C026B017C010E9447
:100500004C026C197D098E099F09683E7340810574
:100510009105A8F321E0821A9108A108B10888EE9C
:10052000C80E83E0D81EE11CF11C81149104A104C3
:10053000B10429F7FF90EF90DF90CF90BF90AF907C
:100540009F908F90089508952091A101260F332741
:10055000331F21323105ECF42091EA01FC0190E0D7
:1005600080E0243069F082E00895A091A1012191FA
:10057000AC014F575E4FA40FB52FB11D2C930196C0
:10058000861798F38091A101680F6093A10180E024
:10059000089581E008951092EA0181E08093E901D5
:1005A0001092C40161E082E10E94ED0161E083E10B
:1005B0000E94ED01E9EBF0E080818E7F80838081F5
:1005C0008D7F808388E48093B80085E48093BC00AD
:1005D0000895CF93DF9391E0909380018823B9F041
:1005E000C091B800D091BA008091BC008A7B809302
:1005F000BC0060E082E10E94ED0160E083E10E94C6
:10060000ED010E94CB02D093BA00C093B800DF91F5
:10061000CF9108950895E0911E0280911D02E81780
:1006200030F4F0E0E05AFE4F808190E008958FEFC3
:100630009FEF089590911E0280911D022FEF3FEFD2
:10064000981748F4E92FF0E0E05AFE4F208130E09F
:100650009F5F90931E02C901089580911D029091A1
:100660001E02891B990B0895CF92DF92EF92FF92A1
:100670000F931F93CF93DF937C01CB018A012091CD
:10068000F001222389F0EB016B01C40ED51ECC15BD
:10069000DD0569F06991D701ED91FC910190F08140
:1006A000E02DC7010995F3CF642F0E94A402C80171
:1006B000DF91CF911F910F91FF90EF90DF90CF903E
:1006C0000895CF93DF931F92CDB7DEB76983209152
:1006D000F0012223F9F020911B02203258F021E092
:1006E00030E0FC013383228390E080E00F90DF91C3
:1006F000CF91089580911C02E82FF0E0EF50FE4F5B
:10070000998190838F5F80931C0280931B0281E00C
:1007100090E0ECCF61E0CE0101960E94A402F7CFF9
:10072000CF92DF92EF92FF920F931F93CF93DF93BD
:10073000FC01C48121E02093F001C09311021092CA
:100740001C0210921B028385682B80EC92E00E94B1
:100750006103D0911B02D13208F092C00E944C027A
:100760006B017C018091EA01811165C082E0809378
:10077000EA0181E08093E9018FEF8093E801109214
:10078000E701D093E601A1EFB1E0E6ECF1E080E013
:10079000D81385C01092C5018091C501CC0FC82B1C
:1007A000C093C5018091C401813009F07CC01092D2
:1007B000C4010E944C026B017C018091C5018093B1
:1007C000BB008091EC019091ED01A091EE01B09100
:1007D000EF01892B8A2B8B2B99F00E944C02009100
:1007E000EC011091ED012091EE013091EF016C19B7
:1007F0007D098E099F090617170728073907E0F1B9
:100800008091BC0083FDD9CF85EC8093BC000E9411
:100810004C026B017C018091EA01823009F445C0F1
:100820008091E8018F3F61F18091E801803241F1D0
:100830008091E80125C08091EC019091ED01A0919B
:10084000EE01B091EF01892B8A2B8B2B09F48ACF13
:100850000E944C020091EC011091ED012091EE01FB
:100860003091EF016C197D098E099F090617170752
:100870002807390708F076CF8091EB010E94E90242
:1008800010921C0210921B021092F001DF91CF9186
:100890001F910F91FF90EF90DF90CF9008959D9161
:1008A00091938F5F75CF85EEB0CF8091EC019091E1
:1008B000ED01A091EE01B091EF01892B8A2B8B2BDA
:1008C00009F4A9CF0E944C020091EC011091ED01B6
:1008D0002091EE013091EF016C197D098E099F097D
:1008E000061717072807390708F095CFC5CF90E0FE
:1008F00080E008958F929F92AF92BF920F931F93C3
:10090000CF93DF93CDB7DEB7A1970FB6F894DEBFD4
:100910000FBECDBF19A2423008F44AE08E010F5D30
:100920001F4F842E912CB12CA12CA50194010E9463
:100930000A0DE62FB901CA01EA3044F5E05DD8019D
:10094000EE938D01232B242B252B79F790E080E06B
:10095000109769F0FD0101900020E9F73197AF0190
:100960004A1B5B0BBD0189ED92E00E946E01A196CE
:100970000FB6F894DEBF0FBECDBFDF91CF911F91B0
:100980000F91BF90AF909F908F900895E95CD7CF63
:10099000EF92FF921F93CF93DF9361E08091D20299
:1009A0000E94ED016AEF70E080E090E00E94710229
:1009B0002FB7F89480911F0290912002A0912102FC
:1009C000B09122022FBF4091D4025091D502609184
:1009D000D6027091D70284179507A607B70740F48F
:1009E0001092D4021092D5021092D6021092D70221
:1009F0002091D802211118C04091D4025091D50203
:100A00006091D6027091D702841B950BA60BB70B91
:100A1000803D9740A105B10538F481E0DF91CF9189
:100A20001F91FF90EF9008951092D8022FB7F8947D
:100A300080911F0290912002A0912102B091220288
:100A40002FBF8093D4029093D502A093D602B09387
:100A5000D7021092D0021092CF021092CE021092C2
:100A6000CD021092CC0261E08091D2020E941B0262
:100A700060E08091D2020E94ED0164E170E080E0CC
:100A800090E00E947102F89461E08091D2020E948D
:100A9000ED018BE990E00197F1F760E08091D202DF
:100AA0000E941B0210E081E0C0E0D0E0E82EF12CB3
:100AB0008091D2020E94C4018E159F0519F4DF5F58
:100AC000DF3FB1F78091D2020E94C401DF3FA1F065
:100AD000C43078F0C0FD0DC0E12FE695E695E695AF
:100AE000F0E0E453FD4F9081990FD73008F59083E3
:100AF0001F5FCF5FC535C9F678941832B8F04091C2
:100B0000D0022091CC028091CD02280F3327331FD1
:100B10008091CE02280F311D8091CF02820F932F3A
:100B2000911D99274817190609F477CF80E076CFF1
:100B30009160DDCF0F931F93CF938C01C62F0E943E
:100B400090036C2F6460C8010E9490036C2F6B7F30
:100B5000C8010E94900383EC90E00197F1F7CF91D8
:100B60001F910F9108950F931F93CF93DF938C01E3
:100B7000D62FC42F607F642B0E949A0580E1D89FF6
:100B8000B00111246C2BC801DF91CF911F910F91FF
:100B90000C949A05CF93DF93CDB7DEB728970FB6A5
:100BA000F894DEBF0FBECDBF98E0E8E0F1E0DE01D3
:100BB000119601900D929A95E1F79091E1029617A6
:100BC00008F46FEF262F30E0220F331F41E050E092
:100BD0004C0F5D1F240F351FF9016081680F60689D
:100BE00040E089ED92E028960FB6F894DEBF0FBE84
:100BF000CDBFDF91CF910C94B30541E00E94B305C6
:100C000081E090E00895CF92DF92EF92FF9297FFFC
:100C100018C06B017C0141E06DE289ED92E00E9419
:100C2000B30566277727CB016C197D098E099F09CB
:100C30004AE00E947A040196FF90EF90DF90CF90F7
:100C400008954AE0FF90EF90DF90CF900C947A04E3
:100C500085ED8093BC008091EC019091ED01A09115
:100C6000EE01B091EF010796A11DB11D23E0B695ED
:100C7000A795979587952A95D1F72091BC0024FDDB
:100C800003C01092EA0108954091EC015091ED01EA
:100C90006091EE017091EF01452B462B472B69F3D4
:100CA0000097A105B10541F025E32A95F1F7000071
:100CB0000197A109B109E1CF8091EB010C94E90200
:100CC0001F920F920FB60F9211242F933F934F93C1
:100CD0005F936F937F938F939F93AF93BF93EF93A4
:100CE000FF9383E292E00E94C900FF91EF91BF91D0
:100CF000AF919F918F917F916F915F914F913F91B4
:100D00002F910F900FBE0F901F9018951F920F926A
:100D10000FB60F9211242F938F939F93EF93FF930E
:100D2000E0913302F09134028081E0913902F09138
:100D30003A0282FD1BC0908180913C028F5F8F73CD
:100D400020913D02821741F0E0913C02F0E0ED5D20
:100D5000FD4F958F80933C02FF91EF919F918F9172
:100D60002F910F900FBE0F901F9018958081F4CF98
:100D70001F920F920FB60F9211242F933F938F93D0
:100D80009F93AF93BF9380911F0290912002A091F7
:100D90002102B09122023091120223E0230F2D375D
:100DA00058F50196A11DB11D2093120280931F02D8
:100DB00090932002A0932102B0932202809113020B
:100DC00090911402A0911502B09116020196A11DF6
:100DD000B11D8093130290931402A0931502B09357
:100DE0001602BF91AF919F918F913F912F910F90DC
:100DF0000FBE0F901F90189526E8230F0296A11D95
:100E0000B11DD2CF1F920F920FB60F9211242F93C4
:100E10003F934F935F936F937F938F939F93AF9382
:100E2000BF93EF93FF938091B900887F803609F4D8
:100E30004AC0F0F5883209F4A7C018F5803109F4EA
:100E40009BC0B8F4882309F4F9C0883009F494C031
:100E5000FF91EF91BF91AF919F918F917F916F9192
:100E60005F914F913F912F910F900FBE0F901F9068
:100E70001895883109F488C0803251F78093E801D1
:100E800014C0803409F49DC040F48033B9F3883332
:100E9000F9F68093E80185ECB0C0803509F485C08F
:100EA000883509F496C0883499F60E942806D0CF78
:100EB000883909F48CC038F5883729F050F4883621
:100EC00011F0803729F683E08093EA011092C30184
:100ED00057C0883809F47BC0803919F0803809F090
:100EE000B7CF8091C301803208F071C0E091C30197
:100EF00081E08E0F8093C3018091BB00F0E0ED553F
:100F0000FE4F80833DC0803B39F0E0F4803A09F425
:100F100079C0883A09F09CCF84E08093EA0110926E
:100F2000A2011092A101E0911902F0911A02099513
:100F30008091A10181110FC081E08093A1011092E5
:100F4000810109C0803C09F4A6CF883C09F4A3CFF5
:100F5000883B09F07DCFE091A20181E08E0F809364
:100F6000A201F0E0EF57FE4F80818093BB0090918B
:100F7000A2018091A10129C08091C5018093BB008D
:100F800085EC8093BC0064CF9091E7018091E601ED
:100F9000981758F5E091E70181E08E0F8093E70103
:100FA000F0E0EA53FE4F8081E9CFE091E70181E074
:100FB0008E0F8093E7018091BB00F0E0EA53FE4F73
:100FC00080839091E7018091E6019817C8F285E847
:100FD000D8CFE091E70181E08E0F8093E701809107
:100FE000BB00F0E0EA53FE4F80838091E90181115C
:100FF0005CCF81E08093C40184EA8093BC001092AE
:10100000EA0126CF85EC8093BC001092EA01809122
:10101000C301803230F4E091C301F0E0ED55FE4FA2
:1010200010826091C30170E0E0911702F091180204
:1010300083EA91E009951092C3010ACF1092E8016A
:1010400034CFE3E2F2E01382128288EE93E0A0E074
:10105000B0E084839583A683B78324E131E03183B4
:10106000208325EC30E03587248724EC30E0378777
:10107000268720EC30E0318B208B21EC30E0338B65
:10108000228B22EC30E0358B248B26EC30E0378B42
:10109000268B118E128E138E148EE0ECF2E01382EA
:1010A000128284839583A683B78386E291E091833D
:1010B0008083E9EDF2E01382128288E391E091836C
:1010C000808387E2848380E1818782E08287138640
:1010D000ECECF2E086838BE0878381E084870895DF
:1010E000789484B5826084BD84B5816084BD85B503
:1010F000826085BD85B5816085BD80916E0081600F
:1011000080936E00109281008091810082608093B4
:1011100081008091810081608093810080918000B6
:101120008160809380008091B10084608093B100E1
:101130008091B00081608093B00080917A008460DB
:1011400080937A0080917A00826080937A00809107
:101150007A00816080937A0080917A008068809321
:101160007A001092C10010921E0210921D0210927D
:101170001C0210921B020E94CB028CE691E090931D
:101180001A02809319028DE691E0909318028093E1
:1011900017021092DE028091E302823018F098E08C
:1011A0009093DE028093E10262E370E080E090E0E1
:1011B0000E9471026091E40289ED92E00E94900326
:1011C00068EE73E080E090E00E94710260E389EDD8
:1011D00092E00E949A05CBE4D6E4CE010197F1F7A4
:1011E00060E389ED92E00E949A052197F1F760E3B0
:1011F00089ED92E00E949A0583E592E00197F1F76C
:1012000060E289ED92E00E949A056091DE026062E0
:1012100040E089ED92E00E94B30584E08093DF0214
:1012200040E06CE089ED92E00E94B30540E061E0AF
:1012300089ED92E00E94B305CBE3DFE1CE01019797
:10124000F1F782E08093E00240E066E089ED92E011
:101250000E94B30540E062E089ED92E00E94B30590
:101260002197F1F788E08093E40260E089ED92E055
:101270000E94900360E080E00E94CA0543E050E0D5
:1012800060E471E089ED92E00E946E0160E089E027
:101290000E94CA0543E050E064E471E089ED92E009
:1012A0000E946E0161E080E00E94CA0543E050E0C8
:1012B00068E471E089ED92E00E946E0140E068E42C
:1012C00089ED92E00E94B305C0E0D1E0699189ED1B
:1012D00092E00E94FD0581E0C830D807B9F760E0D0
:1012E0008091D2020E941B0261E08091D2020E9492
:1012F000ED011092D4021092D5021092D6021092F3
:10130000D70261E08DE00E941B0261E08CE00E9448
:101310001B02C0E0D0E00E94C804882349F08091FD
:10132000D3028B30A1F020F08551823008F466C0E2
:1013300049E050E06CE471E083E292E00E946E01CB
:10134000812C912C90ECA92E9FE7B92E09C06091B9
:10135000CC0270E090E080E00E94E10B4B015C0168
:101360000E94C804882351F08091D3028B3009F485
:1013700066C020F08551823008F4D4C049E050E0C6
:101380006CE471E083E292E00E946E01C12CD12CEA
:1013900080ECE82E8FE7F82E20E030E040EF51E4BB
:1013A000C701B6010E94930C87FF0AC020E030E01D
:1013B00048E452E4C501B4010E94930C60E087FF49
:1013C00061E08DE00E94ED0120E030E040E252E477
:1013D000C501B4010E94340B61E018160CF460E002
:1013E0008CE00E94ED01209709F495CF0E945801EE
:1013F000882309F490CF0E9400008DCF6091CC0229
:1014000070E090E080E00E94E10B20E030E040E8F6
:1014100053E40E94980C6B017C016091CD0270E056
:1014200090E080E00E94E30BA70196010E94C80AA9
:1014300020E030E040E251E40E94390B8FCF609110
:10144000CE0270E090E080E00E94E10B6B017C0135
:10145000A7019601C701B6010E94050D81119CCF1D
:10146000A5019401C501B4010E94050D811194CF1D
:1014700060E083E00E94CA0520E030E0A901C701D6
:10148000B6010E94930C20E030E040E05FE387FD6E
:1014900074C0C701B6010E94C80A0E94AB0B2B01A1
:1014A0003C010E94030661E089ED92E00E94FD0587
:1014B00041E050E066E571E089ED92E00E946E0146
:1014C00060E08CE00E94CA0520E030E0A901C5017F
:1014D000B4010E94930C20E030E040E05FE387FD20
:1014E00051C0C501B4010E94C80A0E94AB0B0E9402
:1014F000030641E050E068E571E089ED92E00E946A
:101500006E0161E084E00E94CA05C301B2010E943D
:10151000030644E050E06AE571E089ED92E00E9444
:101520006E013ACF1091CE02612F6F7770E090E09C
:1015300080E00E94E30B20E030E040E853E40E94AA
:10154000980C6B017C016091CF0270E090E080E02C
:101550000E94E30BA70196010E94C80A20E030E038
:1015600040E251E40E94390B6B017C0117FF70CF00
:10157000F7FAF094F7F8F0946BCFC701B6010E9428
:10158000C70A8BCFC501B4010E94C70AAECF50581D
:10159000BB27AA270E94DF0A0C94590C0E944B0C0F
:1015A00038F00E94520C20F039F49F3F19F426F4D1
:1015B0000C94480C0EF4E095E7FB0C94420CE92FD8
:1015C0000E946A0C58F3BA176207730784079507DD
:1015D00020F079F4A6F50C948C0C0EF4E0950B2E0B
:1015E000BA2FA02D0B01B90190010C01CA01A00175
:1015F0001124FF27591B99F0593F50F4503E68F1D0
:101600001A16F040A22F232F342F4427585FF3CF10
:10161000469537952795A795F0405395C9F77EF4E1
:101620001F16BA0B620B730B840BBAF09150A1F02A
:10163000FF0FBB1F661F771F881FC2F70EC0BA0FB0
:10164000621F731F841F48F4879577956795B79538
:10165000F7959E3F08F0B0CF9395880F08F0992733
:10166000EE0F9795879508950E941E0C08F481E06F
:1016700008950E944D0B0C94590C0E94520C58F086
:101680000E944B0C40F029F45F3F29F00C94420C6F
:1016900051110C948D0C0C94480C0E946A0C68F348
:1016A0009923B1F3552391F3951B550BBB27AA271B
:1016B00062177307840738F09F5F5F4F220F331F55
:1016C000441FAA1FA9F335D00E2E3AF0E0E832D01D
:1016D00091505040E695001CCAF72BD0FE2F29D020
:1016E000660F771F881FBB1F261737074807AB07F2
:1016F000B0E809F0BB0B802DBF01FF2793585F4F67
:101700003AF09E3F510578F00C94420C0C948D0CED
:101710005F3FE4F3983ED4F3869577956795B79548
:10172000F7959F5FC9F7880F911D9695879597F953
:101730000895E1E0660F771F881FBB1F62177307CC
:101740008407BA0720F0621B730B840BBA0BEE1FE1
:1017500088F7E09508950E94B20B6894B1110C943B
:101760008D0C08950E94720C88F09F5798F0B92F45
:101770009927B751B0F0E1F0660F771F881F991FC6
:101780001AF0BA95C9F714C0B13091F00E948C0CD0
:10179000B1E008950C948C0C672F782F8827B85FE0
:1017A00039F0B93FCCF3869577956795B395D9F71E
:1017B0003EF490958095709561957F4F8F4F9F4F28
:1017C0000895E89409C097FB3EF490958095709534
:1017D00061957F4F8F4F9F4F9923A9F0F92F96E97D
:1017E000BB279395F695879577956795B795F111F2
:1017F000F8CFFAF4BB0F11F460FF1BC06F5F7F4F8F
:101800008F4F9F4F16C0882311F096E911C07723A0
:1018100021F09EE8872F762F05C0662371F096E8A9
:10182000862F70E060E02AF09A95660F771F881F78
:10183000DAF7880F9695879597F90895990F00081C
:10184000550FAA0BE0E8FEEF16161706E807F90792
:10185000C0F012161306E407F50798F0621B730B2D
:10186000840B950B39F40A2661F0232B242B252BAE
:1018700021F408950A2609F4A140A6958FEF811D51
:10188000811D089597F99F6780E870E060E00895F2
:101890009FEF80EC089500240A9416161706180688
:1018A0000906089500240A94121613061406050664
:1018B0000895092E0394000C11F4882352F0BB0FF5
:1018C00040F4BF2B11F460FF04C06F5F7F4F8F4F58
:1018D0009F4F089557FD9058440F551F59F05F3F93
:1018E00071F04795880F97FB991F61F09F3F79F042
:1018F00087950895121613061406551FF2CF4695C4
:10190000F1DF08C0161617061806991FF1CF869545
:101910007105610508940895E894BB276627772729
:10192000CB0197F908950E941E0C08F48FEF0895DB
:101930000E94AB0C0C94590C0E944B0C38F00E9486
:10194000520C20F0952311F00C94420C0C94480C8E
:1019500011240C948D0C0E946A0C70F3959FC1F3B6
:10196000950F50E0551F629FF001729FBB27F00D4D
:10197000B11D639FAA27F00DB11DAA1F649F6627A2
:10198000B00DA11D661F829F2227B00DA11D621FF1
:10199000739FB00DA11D621F839FA00D611D221FAB
:1019A000749F3327A00D611D231F849F600D211D8F
:1019B000822F762F6A2F11249F5750409AF0F1F012
:1019C00088234AF0EE0FFF1FBB1F661F771F881F7B
:1019D00091505040A9F79E3F510580F00C94420C65
:1019E0000C948D0C5F3FE4F3983ED4F38695779585
:1019F0006795B795F795E7959F5FC1F7FE2B880F21
:101A0000911D9695879597F908950E941E0C880B55
:101A1000990B0895A1E21A2EAA1BBB1BFD010DC054
:101A2000AA1FBB1FEE1FFF1FA217B307E407F5078E
:101A300020F0A21BB30BE40BF50B661F771F881F6A
:101A4000991F1A9469F760957095809590959B0100
:101A5000AC01BD01CF010895EE0FFF1F0590F49179
:081A6000E02D0994F894FFCF7A
:101A68000E0A0E00000000000000400014005400A0
:101A780000000000EB006E018C003801BD009B00E7
:101A8800AF00000000006103340377040A032D034C
:101A98001A030B0300000000FD056E017704A30282
:101AA8004E443A0044413A0041533A005265616459
:101AB800206661696C0043002500206C7578000081
:00000001FF
